:100000000C945E000C9486000C9486000C943304CF
:100010000C9433040C9433040C9486000C948600E6
:100020000C9486000C9486000C9486000C94860038
:100030000C9486000C9486000C9486000C94860028
:100040000C94E9030C9486000C94B7030C94910370
:100050000C9486000C9486000C9486000C94860008
:100060000C9486000C9486000000000024002700F9
:100070002A0000000000250028002B0004040404CE
:100080000404040402020202020203030303030342
:10009000010204081020408001020408102001021F
:1000A00004081020000000080002010000030407FB
:1000B00000000000000000003D04E00511241FBE08
:1000C000CFEFD8E0DEBFCDBF11E0A0E0B1E0E8E6C1
:1000D000FEE002C005900D92A232B107D9F722E0EE
:1000E000A2E2B1E001C01D92A431B207E1F710E035
:1000F000CDE5D0E004C02197FE010E94E805CC3593
:10010000D107C9F70E94F6040C9427070C9400004D
:1001100090E0FC01EC55FF4F2491FC01E057FF4FAC
:100120003491FC01E458FF4FE491EE23B9F122230E
:1001300039F1233091F038F42130A9F0223001F563
:1001400084B58F7D12C0273091F02830A1F0243083
:10015000B9F4809180008F7D03C0809180008F77FB
:10016000809380000DC084B58F7784BD09C08091D5
:10017000B0008F7703C08091B0008F7D8093B00076
:10018000F0E0EE0FFF1FEE58FF4FA591B4918FB72F
:10019000F894EC9130953E233C938FBF0895CF9215
:1001A000DF92EF92FF920F931F93CF93DF936C0137
:1001B0007A018B01C0E0D0E0CE15DF0589F0D801CF
:1001C0006D918D01D601ED91FC910190F081E02DB2
:1001D000C6010995892B11F47E0102C02196ECCF4E
:1001E000C701DF91CF911F910F91FF90EF90DF90AA
:1001F000CF900895FC01538D448D252F30E0842F3E
:1002000090E0821B930B541710F0CF96089501973E
:100210000895FC01918D828D981761F0828DDF0128
:10022000A80FB11D5D968C91928D9F5F9F73928FE9
:1002300090E008958FEF9FEF0895FC01918D828DDE
:10024000981731F0828DE80FF11D858D90E00895AB
:100250008FEF9FEF0895FC01918D228D892F90E003
:10026000805C9F4F821B91098F73992708958DE2BF
:1002700091E00E942B0121E0892B09F420E0822FDC
:100280000895FC01848DDF01A80FB11DA35ABF4F53
:100290002C91848D90E001968F739927848FA68985
:1002A000B7892C93A089B1898C9180648C93938DAC
:1002B000848D981306C00288F389E02D80818F7D9C
:1002C00080830895EF92FF920F931F93CF93DF9354
:1002D000EC0181E0888F9B8D8C8D981305C0E88997
:1002E000F989808185FD24C0F62E0B8D10E00F5F0B
:1002F0001F4F0F731127E02E8C8DE8120CC00FB624
:1003000007FCFACFE889F989808185FFF5CFCE0116
:100310000E944101F1CF8B8DFE01E80FF11DE35AE0
:10032000FF4FF0820B8FEA89FB898081806207C0D2
:10033000EE89FF896083E889F98980818064808300
:1003400081E090E0DF91CF911F910F91FF90EF90AE
:100350000895CF93DF93EC01888D8823C9F0EA8953
:10036000FB89808185FD05C0A889B9898C9186FDAE
:100370000FC00FB607FCF5CF808185FFF2CFA889AB
:10038000B9898C9185FFEDCFCE010E944101E7CF65
:10039000DF91CF91089580E090E0892B29F00E94B1
:1003A000370181110C9400000895CF93DF9390E002
:1003B000FC01E057FF4F2491FC01E458FF4F84916A
:1003C000882361F190E0880F991FFC01E859FF4FE5
:1003D000C591D491FC01EE58FF4FA591B4916111E4
:1003E00009C09FB7F8948881209582238883EC9177
:1003F0002E230BC0623061F49FB7F8943881822FAE
:10040000809583238883EC912E2B2C939FBF06C06D
:100410008FB7F894E8812E2B28838FBFDF91CF917F
:1004200008953FB7F8948091290190912A01A091F5
:100430002B01B0912C0126B5A89B05C02F3F19F0C8
:100440000196A11DB11D3FBFBA2FA92F982F882754
:10045000820F911DA11DB11DBC01CD0142E0660FAF
:10046000771F881F991F4A95D1F70895089580E056
:1004700090E00895CF92DF92EF92FF920F931F9337
:10048000CF93DF93CDB7DEB729970FB6F894DEBFD1
:100490000FBECDBF8C010E941102D8011E96CD90D7
:1004A000DD90ED90FC905197DC01CB018C199D09FA
:1004B000AE09BF098C329140A105B10560F3F894F3
:1004C000D80114968D919C9115979A8389831896DB
:1004D000ED91FC9119977F01BFEFEB1AFB0A808128
:1004E0008B83F80190810288F389E02DD80154961E
:1004F0008C91992309F430C09081982B9C83908132
:10050000809589238D838D818E8388E08F835C81A4
:100510006D814B813F812E8189819A81D7015083E2
:1005200047FD252F3A952083262F39F0441F00C020
:1005300000006083000000C0F2CF38E04D9160837E
:100540000000019761F7D8015396FC93EE93529700
:100550004B833F832E833AC09081982B9C8390815C
:10056000809589238D838D81888788E089875C8148
:100570006D814B813985288589819A81D701508386
:1005800047FD252F00C000C0208300C000C000C070
:1005900000C000C060830000262F3A9541F0441F40
:1005A000000000C000C000C000C000C0E8CF38E0BC
:1005B0004D9100C0608300C0019709F7D8015396A0
:1005C000FC93EE9352974B83398728879A838983CC
:1005D00078940E941102F80166877787808B918B4F
:1005E00029960FB6F894DEBF0FBECDBFDF91CF9135
:1005F0001F910F91FF90EF90DF90CF9008951F9380
:10060000CF93DF93EC01162F8981882331F08E81FF
:1006100087FD03C060E00E94D5011E838981882385
:1006200039F061E0812F0E94D501812F0E9488005E
:10063000812F90E0FC01E458FF4FE491F0E0EE0FD1
:10064000FF1FEE58FF4F259134913B8B2A8BFC0105
:10065000E057FF4FE491EC8BDF91CF911F9108950C
:10066000CF93DF93EC018E8187FD06C061E00E948D
:10067000D5018E810E94880081E08983DF91CF912E
:1006800008950E941B07EF92FF920F931F93CF9341
:10069000DF93EC017B0188859985009711F00E941A
:1006A00083069D858A85981719F084E090E002C042
:1006B00083E090E08E9D80018F9D100D9E9D100D1A
:1006C00011241D830C83C8010E94EE059987888739
:1006D000009741F0A80160E070E00E942007FB82D3
:1006E000EA8204C01D821C821B821A82DF91CF9194
:1006F0001F910F91FF90EF900895CF93DF93EC013E
:1007000088859985009711F00E9483068E8187FD68
:1007100005C060E0DF91CF910C94D501DF91CF91BE
:1007200008951F920F920FB60F9211242F933F93AB
:100730004F935F936F937F938F939F93AF93BF93E9
:10074000EF93FF938DE291E00E944101FF91EF91C1
:10075000BF91AF919F918F917F916F915F914F91D9
:100760003F912F910F900FBE0F901F9018951F92E1
:100770000F920FB60F9211242F938F939F93EF93A5
:10078000FF93E0913D01F0913E018081E0914301B2
:10079000F091440182FD12C09081809146018F5FEB
:1007A0008F7320914701821751F0E0914601F0E0EC
:1007B000E35DFE4F958F8093460101C08081FF91DC
:1007C000EF919F918F912F910F900FBE0F901F90DF
:1007D00018951F920F920FB60F9211242F933F93EB
:1007E0008F939F93AF93BF938091250190912601A2
:1007F000A0912701B09128013091240123E0230F1B
:100800002D3720F40196A11DB11D05C026E8230F48
:100810000296A11DB11D2093240180932501909380
:100820002601A0932701B09328018091290190917E
:100830002A01A0912B01B0912C010196A11DB11D9F
:100840008093290190932A01A0932B01B0932C014E
:10085000BF91AF919F918F913F912F910F900FBEBC
:100860000F901F9018951F920F920FB60F921124A0
:100870000F900FBE0F901F901895CF93DF93EDE26E
:10088000F1E01382128288EE93E0A0E0B0E084836E
:100890009583A683B7838AE091E09183808385EC7A
:1008A00090E09587848784EC90E09787868780EC3A
:1008B00090E0918B808B81EC90E0938B828B82EC2B
:1008C00090E0958B848B86EC90E0978B868B118ED5
:1008D000128E138E148EEBEFF1E0118217821186C7
:1008E000108616861786108A118AC1E0C587C287CE
:1008F0001386D2E0D487C08360EA70E0CF010E9403
:10090000430365E08BEF91E00E94FF02E6EEF1E029
:10091000118217821186108616861786108A118A10
:10092000C587C2871386D487C08360EA70E0CF0191
:100930000E94430362E086EE91E00E94FF0280E0A5
:1009400090E0AFEFB0E08093E2019093E301A093D9
:10095000E401B093E50180E09FEFA0E0B0E0809378
:10096000DE019093DF01A093E001B093E1018FEFEE
:1009700090E0A0E0B0E08093DA019093DB01A093D7
:10098000DC01B093DD0180E090E0A0E0BFEF809358
:10099000D6019093D701A093D801B093D9018FE7E6
:1009A0009FE7AFE7B0E08093D2019093D301A0938B
:1009B000D401B093D50180E090E0AFE7B0E0809340
:1009C000CE019093CF01A093D001B093D1018FE7D6
:1009D00090E0A0E0B0E08093CA019093CB01A09397
:1009E000CC01B093CD01DF91CF910895789484B577
:1009F000826084BD84B5816084BD85B5826085BD1B
:100A000085B5816085BD80916E00816080936E00A8
:100A1000109281008091810082608093810080919A
:100A2000810081608093810080918000816080934B
:100A300080008091B10084608093B1008091B0000B
:100A400081608093B00080917A00846080937A0006
:100A500080917A00826080937A0080917A00816030
:100A600080937A0080917A00806880937A00109257
:100A7000C100E0913D01F0913E0182E08083E09170
:100A80003901F0913A011082E0913B01F0913C0173
:100A90008FEC808310924501E0914101F091420179
:100AA00086E08083E0913F01F09140018081806188
:100AB0008083E0913F01F0914001808188608083D4
:100AC000E0913F01F0914001808180688083E09156
:100AD0003F01F091400180818F7D808345E050E0AF
:100AE00068E171E08DE291E00E94CF0042E050E0C9
:100AF0006EE171E08DE291E00E94CF008BEF91E01A
:100B00000E94300386EE91E00E9430038091030240
:100B100090910402892B21F08BEF91E00E943A0220
:100B20008091EE019091EF01892B21F086EE91E00A
:100B30000E943A028DE291E00E942B01892BB9F0CC
:100B40008DE291E00E940901E0912D01F0912E01CA
:100B50000190F081E02D682F8DE291E0099542E04F
:100B600050E06EE171E08DE291E00E94CF000E94C2
:100B700011024B015C0188E7C82ED12CE12CF12C2D
:100B80000E941102DC01CB0188199909AA09BB094D
:100B9000883E9340A105B10558F021E0C21AD10862
:100BA000E108F10888EE880E83E0981EA11CB11CB4
:100BB000C114D104E104F10419F70E94CB01BACFAA
:100BC00086EE91E00E947D038BEF91E00C947D0313
:100BD000EE0FFF1F0590F491E02D0994CF93DF9362
:100BE0008230910510F482E090E0E0911202F091E1
:100BF000130220E030E0C0E0D0E0309711F14081F6
:100C0000518148175907C0F04817590761F482818C
:100C10009381209719F09B838A832BC090931302B2
:100C20008093120226C02115310519F0421753078F
:100C300018F49A01BE01DF01EF010280F381E02D7B
:100C4000DCCF2115310509F1281B390B2430310582
:100C500090F412968D919C9113976115710521F076
:100C6000FB019383828304C090931302809312024A
:100C7000FD01329644C0FD01E20FF31F8193919371
:100C8000225031092D933C933AC0209110023091AB
:100C90001102232B41F42091020130910301309382
:100CA00011022093100220910001309101012115C1
:100CB000310541F42DB73EB7409104015091050133
:100CC000241B350BE0911002F0911102E217F3079B
:100CD000A0F42E1B3F0B2817390778F0AC014E5FAC
:100CE0005F4F2417350748F04E0F5F1F50931102D6
:100CF000409310028193919302C0E0E0F0E0CF01B5
:100D0000DF91CF9108950F931F93CF93DF930097B7
:100D100009F48CC0FC0132971382128200911202F6
:100D2000109113020115110581F420813181820F88
:100D3000931F20911002309111022817390779F57D
:100D4000F0931102E093100271C0D80140E050E02E
:100D5000AE17BF0750F412962D913C911397AD0139
:100D60002115310509F1D901F3CF9D01DA01338352
:100D7000228360817181860F971F8217930769F420
:100D8000EC0128813981260F371F2E5F3F4F3183B9
:100D900020838A819B8193838283452B29F4F0935E
:100DA0001302E093120242C01396FC93EE93129743
:100DB000ED01499159919E01240F351FE217F30768
:100DC00071F480819181840F951F029611969C93F6
:100DD0008E938281938113969C938E931297E0E079
:100DE000F0E0D80112968D919C911397009719F01D
:100DF000F8018C01F6CF8D919C9198012E5F3F4FA9
:100E0000820F931F20911002309111022817390789
:100E100069F4309729F4109213021092120202C062
:100E2000138212821093110200931002DF91CF916E
:100E30001F910F91089581E090E0F8940C9427079A
:100E4000DC0101C06D9341505040E0F7089510E07F
:100E5000CDE5D0E004C0FE010E94E8052196CE3524
:080E6000D107C9F7F894FFCF98
:100E6800000014028000000000006201CF00FA00B8
:100E7800A9012B0109011D015265616479000D0A60
:020E8800000068
:00000001FF
